{
  "contractName": "candidatesInfo",
  "abi": [
    {
      "inputs": [
        {
          "internalType": "uint256",
          "name": "",
          "type": "uint256"
        }
      ],
      "name": "candidates",
      "outputs": [
        {
          "internalType": "string",
          "name": "candidateType",
          "type": "string"
        },
        {
          "internalType": "string",
          "name": "partyName",
          "type": "string"
        },
        {
          "internalType": "string",
          "name": "symbolURL",
          "type": "string"
        },
        {
          "internalType": "string",
          "name": "cid",
          "type": "string"
        }
      ],
      "stateMutability": "view",
      "type": "function",
      "constant": true
    },
    {
      "inputs": [
        {
          "internalType": "uint256",
          "name": "",
          "type": "uint256"
        },
        {
          "internalType": "uint256",
          "name": "",
          "type": "uint256"
        }
      ],
      "name": "standingConstituencies",
      "outputs": [
        {
          "internalType": "uint256",
          "name": "constituencyID",
          "type": "uint256"
        },
        {
          "internalType": "uint256",
          "name": "totalVotes",
          "type": "uint256"
        }
      ],
      "stateMutability": "view",
      "type": "function",
      "constant": true
    },
    {
      "inputs": [
        {
          "internalType": "uint256",
          "name": "candidateNID",
          "type": "uint256"
        },
        {
          "internalType": "uint256",
          "name": "_constituencyID",
          "type": "uint256"
        }
      ],
      "name": "addStandingConstituency",
      "outputs": [
        {
          "internalType": "bool",
          "name": "",
          "type": "bool"
        }
      ],
      "stateMutability": "nonpayable",
      "type": "function"
    },
    {
      "inputs": [
        {
          "internalType": "uint256",
          "name": "_candidateNID",
          "type": "uint256"
        },
        {
          "internalType": "string",
          "name": "_candidateType",
          "type": "string"
        },
        {
          "internalType": "string",
          "name": "_partyName",
          "type": "string"
        },
        {
          "internalType": "string",
          "name": "_symbol",
          "type": "string"
        },
        {
          "internalType": "string",
          "name": "_cid",
          "type": "string"
        },
        {
          "internalType": "uint256",
          "name": "_constituencyID",
          "type": "uint256"
        }
      ],
      "name": "addCandidate",
      "outputs": [
        {
          "internalType": "bool",
          "name": "",
          "type": "bool"
        }
      ],
      "stateMutability": "nonpayable",
      "type": "function"
    },
    {
      "inputs": [
        {
          "internalType": "uint256",
          "name": "_candidateNID",
          "type": "uint256"
        },
        {
          "internalType": "uint256",
          "name": "_constituencyID",
          "type": "uint256"
        }
      ],
      "name": "deleteCandidate",
      "outputs": [
        {
          "internalType": "bool",
          "name": "",
          "type": "bool"
        }
      ],
      "stateMutability": "nonpayable",
      "type": "function"
    },
    {
      "inputs": [],
      "name": "getLength",
      "outputs": [
        {
          "internalType": "uint256",
          "name": "",
          "type": "uint256"
        }
      ],
      "stateMutability": "view",
      "type": "function",
      "constant": true
    },
    {
      "inputs": [],
      "name": "getAllCandidateNID",
      "outputs": [
        {
          "internalType": "uint256[]",
          "name": "",
          "type": "uint256[]"
        }
      ],
      "stateMutability": "view",
      "type": "function",
      "constant": true
    },
    {
      "inputs": [
        {
          "internalType": "uint256",
          "name": "_candidateNID",
          "type": "uint256"
        }
      ],
      "name": "getStandingConstituencyLength",
      "outputs": [
        {
          "internalType": "uint256",
          "name": "",
          "type": "uint256"
        }
      ],
      "stateMutability": "view",
      "type": "function",
      "constant": true
    },
    {
      "inputs": [
        {
          "internalType": "uint256",
          "name": "_candidateNID",
          "type": "uint256"
        },
        {
          "internalType": "uint256",
          "name": "_constituencyID",
          "type": "uint256"
        }
      ],
      "name": "castVoteAction",
      "outputs": [
        {
          "internalType": "bool",
          "name": "",
          "type": "bool"
        }
      ],
      "stateMutability": "nonpayable",
      "type": "function"
    },
    {
      "inputs": [
        {
          "internalType": "uint256",
          "name": "_candidateNID",
          "type": "uint256"
        },
        {
          "internalType": "uint256",
          "name": "_constituencyID",
          "type": "uint256"
        }
      ],
      "name": "getConstituencyWiseVoteCount",
      "outputs": [
        {
          "internalType": "uint256",
          "name": "",
          "type": "uint256"
        }
      ],
      "stateMutability": "view",
      "type": "function",
      "constant": true
    }
  ],
  "bytecode": "0x608060405234801561000f575f80fd5b50610e968061001d5f395ff3fe608060405234801561000f575f80fd5b506004361061009b575f3560e01c8063be1c766b11610063578063be1c766b14610133578063ceb18b231461013b578063cf4a606014610163578063d001f62214610176578063fdb1988714610189575f80fd5b8063171af8e01461009f5780632b4e1e30146100c55780633477ee2e146100da578063769e705f146100fd5780638087df8114610120575b5f80fd5b6100b26100ad366004610a3c565b6101a8565b6040519081526020015b60405180910390f35b6100cd610245565b6040516100bc9190610a5c565b6100ed6100e8366004610a9f565b61029b565b6040516100bc9493929190610af9565b61011061010b366004610a3c565b6104da565b60405190151581526020016100bc565b61011061012e366004610bed565b6105bd565b6002546100b2565b61014e610149366004610a3c565b61068b565b604080519283526020830191909152016100bc565b610110610171366004610a3c565b6106c3565b610110610184366004610a3c565b610885565b6100b2610197366004610a9f565b5f9081526001602052604090205490565b5f80805b5f8581526001602052604090205481101561023b575f8581526001602052604090208054859190839081106101e3576101e3610ca4565b905f5260205f2090600202015f015403610229575f85815260016020526040902080548290811061021657610216610ca4565b905f5260205f2090600202016001015491505b8061023381610ccc565b9150506101ac565b5090505b92915050565b6060600280548060200260200160405190810160405280929190818152602001828054801561029157602002820191905f5260205f20905b81548152602001906001019080831161027d575b5050505050905090565b5f602081905290815260409020805481906102b590610ce4565b80601f01602080910402602001604051908101604052809291908181526020018280546102e190610ce4565b801561032c5780601f106103035761010080835404028352916020019161032c565b820191905f5260205f20905b81548152906001019060200180831161030f57829003601f168201915b50505050509080600101805461034190610ce4565b80601f016020809104026020016040519081016040528092919081815260200182805461036d90610ce4565b80156103b85780601f1061038f576101008083540402835291602001916103b8565b820191905f5260205f20905b81548152906001019060200180831161039b57829003601f168201915b5050505050908060020180546103cd90610ce4565b80601f01602080910402602001604051908101604052809291908181526020018280546103f990610ce4565b80156104445780601f1061041b57610100808354040283529160200191610444565b820191905f5260205f20905b81548152906001019060200180831161042757829003601f168201915b50505050509080600301805461045990610ce4565b80601f016020809104026020016040519081016040528092919081815260200182805461048590610ce4565b80156104d05780601f106104a7576101008083540402835291602001916104d0565b820191905f5260205f20905b8154815290600101906020018083116104b357829003601f168201915b5050505050905084565b5f5f19815b5f85815260016020526040902054811015610544575f85815260016020526040902080548591908390811061051657610516610ca4565b905f5260205f2090600202015f01540361053257809150610544565b8061053c81610ccc565b9150506104df565b505f84815260016020526040902080548290811061056457610564610ca4565b905f5260205f2090600202016001015460016105809190610d1c565b5f85815260016020526040902080548390811061059f5761059f610ca4565b905f5260205f20906002020160010181905550600191505092915050565b604080516080810182528681526020808201879052818301869052606082018590525f89815290819052918220815182919081906105fb9082610d7d565b50602082015160018201906106109082610d7d565b50604082015160028201906106259082610d7d565b506060820151600382019061063a9082610d7d565b509050505f6106498985610885565b600280546001810182555f919091527f405787fa12a823e0f2b7631cc41b3ba8828b3321ca811111fa75cd3aa3bb5ace018a9055925050509695505050505050565b6001602052815f5260405f2081815481106106a4575f80fd5b5f91825260209091206002909102018054600190910154909250905082565b5f828152600160208190526040822054900361073e575f838152602081905260408120906106f182826109b2565b6106fe600183015f6109b2565b61070b600283015f6109b2565b610718600383015f6109b2565b50505f838152600160205260408120610730916109ec565b610739836108e9565b61087c565b5f805b5f858152600160205260409020548110156107a6575f85815260016020526040902080548591908390811061077857610778610ca4565b905f5260205f2090600202015f015403610794578091506107a6565b8061079e81610ccc565b915050610741565b505f848152600160208190526040909120546107c29190610e39565b811015610842575f848152600160208190526040909120805490916107e691610e39565b815481106107f6576107f6610ca4565b905f5260205f20906002020160015f8681526020019081526020015f20828154811061082457610824610ca4565b5f918252602090912082546002909202019081556001918201549101555b5f84815260016020526040902080548061085e5761085e610e4c565b5f8281526020812060025f1990930192830201818155600101559055505b50600192915050565b5f82815260016020526040812054600511156108e157506040805180820182528281525f60208083018281528683526001808352948320805480870182559084529190922092516002909102909201918255519082015561023f565b505f92915050565b5f5b6002548110156109ae57816002828154811061090957610909610ca4565b905f5260205f2001540361099c5760025461092690600190610e39565b8114610974576002805461093c90600190610e39565b8154811061094c5761094c610ca4565b905f5260205f2001546002828154811061096857610968610ca4565b5f918252602090912001555b600280548061098557610985610e4c565b600190038181905f5260205f20015f905590555050565b806109a681610ccc565b9150506108eb565b5050565b5080546109be90610ce4565b5f825580601f106109cd575050565b601f0160209004905f5260205f20908101906109e99190610a0a565b50565b5080545f8255600202905f5260205f20908101906109e99190610a22565b5b80821115610a1e575f8155600101610a0b565b5090565b5b80821115610a1e575f8082556001820155600201610a23565b5f8060408385031215610a4d575f80fd5b50508035926020909101359150565b602080825282518282018190525f9190848201906040850190845b81811015610a9357835183529284019291840191600101610a77565b50909695505050505050565b5f60208284031215610aaf575f80fd5b5035919050565b5f81518084525f5b81811015610ada57602081850181015186830182015201610abe565b505f602082860101526020601f19601f83011685010191505092915050565b608081525f610b0b6080830187610ab6565b8281036020840152610b1d8187610ab6565b90508281036040840152610b318186610ab6565b90508281036060840152610b458185610ab6565b979650505050505050565b634e487b7160e01b5f52604160045260245ffd5b5f82601f830112610b73575f80fd5b813567ffffffffffffffff80821115610b8e57610b8e610b50565b604051601f8301601f19908116603f01168101908282118183101715610bb657610bb6610b50565b81604052838152866020858801011115610bce575f80fd5b836020870160208301375f602085830101528094505050505092915050565b5f805f805f8060c08789031215610c02575f80fd5b86359550602087013567ffffffffffffffff80821115610c20575f80fd5b610c2c8a838b01610b64565b96506040890135915080821115610c41575f80fd5b610c4d8a838b01610b64565b95506060890135915080821115610c62575f80fd5b610c6e8a838b01610b64565b94506080890135915080821115610c83575f80fd5b50610c9089828a01610b64565b92505060a087013590509295509295509295565b634e487b7160e01b5f52603260045260245ffd5b634e487b7160e01b5f52601160045260245ffd5b5f60018201610cdd57610cdd610cb8565b5060010190565b600181811c90821680610cf857607f821691505b602082108103610d1657634e487b7160e01b5f52602260045260245ffd5b50919050565b8082018082111561023f5761023f610cb8565b601f821115610d78575f81815260208120601f850160051c81016020861015610d555750805b601f850160051c820191505b81811015610d7457828155600101610d61565b5050505b505050565b815167ffffffffffffffff811115610d9757610d97610b50565b610dab81610da58454610ce4565b84610d2f565b602080601f831160018114610dde575f8415610dc75750858301515b5f19600386901b1c1916600185901b178555610d74565b5f85815260208120601f198616915b82811015610e0c57888601518255948401946001909101908401610ded565b5085821015610e2957878501515f19600388901b60f8161c191681555b5050505050600190811b01905550565b8181038181111561023f5761023f610cb8565b634e487b7160e01b5f52603160045260245ffdfea26469706673582212207ba160c85286e2c21066eb61b869bb51c73e29f67ec957c67135085bb3934f2564736f6c63430008150033",
  "immutableReferences": {},
  "source": "// SPDX-License-Identifier: MIT\r\npragma solidity >=0.7.0 <0.9.0;\r\n\r\ncontract candidatesInfo {\r\n    \r\n    struct StandingConstituency {\r\n        uint constituencyID;\r\n        uint totalVotes;\r\n    }\r\n\r\n    struct Candidate {\r\n        string candidateType;\r\n        string partyName;\r\n        string symbolURL;\r\n        string cid;\r\n    }\r\n\r\n    mapping(uint => Candidate) public candidates;\r\n    mapping(uint => StandingConstituency[]) public standingConstituencies;\r\n    uint[] allCandidatesNID;\r\n\r\n    //add and update standingConstituency\r\n    function addStandingConstituency(uint candidateNID, uint _constituencyID) public returns (bool) {\r\n        \r\n        // require(standingConstituencies[candidateNID].length < 5, \"Maximum Constituency Added\");\r\n\r\n        if(standingConstituencies[candidateNID].length < 5){\r\n        \r\n            StandingConstituency memory newConstituency = StandingConstituency(_constituencyID,0);\r\n            standingConstituencies[candidateNID].push(newConstituency);\r\n\r\n            return true;\r\n        }\r\n\r\n        return false;\r\n    }\r\n\r\n    //add candidate\r\n    function addCandidate(uint _candidateNID, string memory _candidateType, string memory _partyName, string memory _symbol, string memory _cid, uint _constituencyID) public returns (bool) { \r\n\r\n        Candidate memory newCandidate = Candidate(_candidateType,_partyName,_symbol,_cid);\r\n        candidates[_candidateNID] = newCandidate;\r\n\r\n        bool status = addStandingConstituency(_candidateNID, _constituencyID);\r\n\r\n        allCandidatesNID.push(_candidateNID);\r\n\r\n        return status;\r\n    }\r\n\r\n    function removeCandidateNID(uint NIDToRemove) internal {\r\n\r\n        for (uint i = 0; i < allCandidatesNID.length; i++) {\r\n            if (allCandidatesNID[i] == NIDToRemove) {\r\n                if (i != allCandidatesNID.length - 1) {\r\n                    allCandidatesNID[i] = allCandidatesNID[\r\n                        allCandidatesNID.length - 1\r\n                    ];\r\n                }\r\n                allCandidatesNID.pop();\r\n                break;\r\n            }\r\n        }\r\n    }\r\n\r\n    function deleteCandidate( uint _candidateNID,uint _constituencyID) public returns (bool) {\r\n        //check for only one seat candidate\r\n        if (standingConstituencies[_candidateNID].length == 1) {\r\n            delete candidates[_candidateNID];\r\n            delete standingConstituencies[_candidateNID];\r\n            removeCandidateNID(_candidateNID);\r\n        } else {\r\n\r\n            uint constituencyIndex = 0;\r\n            for (uint i = 0; i < standingConstituencies[_candidateNID].length; i++) {\r\n                if (standingConstituencies[_candidateNID][i].constituencyID == _constituencyID) {\r\n                    constituencyIndex = i;\r\n                    break;\r\n                }\r\n            }\r\n\r\n            if (constituencyIndex < standingConstituencies[_candidateNID].length - 1) {\r\n                // Move the last element to the index of the element to be deleted\r\n                standingConstituencies[_candidateNID][constituencyIndex] =\r\n                 standingConstituencies[_candidateNID][standingConstituencies[_candidateNID].length - 1];\r\n            }\r\n\r\n            // Pop the last element to remove it\r\n            standingConstituencies[_candidateNID].pop();\r\n        }\r\n\r\n        return true;\r\n    }\r\n\r\n    //get length\r\n    function getLength() public view returns (uint) {\r\n        return allCandidatesNID.length;\r\n    }\r\n\r\n    //get all candidate nid\r\n    function getAllCandidateNID() public view returns (uint[] memory) {\r\n        return allCandidatesNID;\r\n    }\r\n\r\n    //get length of standing constituency of each candidate\r\n    function getStandingConstituencyLength(uint _candidateNID) public view returns (uint){\r\n        return standingConstituencies[_candidateNID].length;\r\n    }\r\n\r\n    //update votes count\r\n    function castVoteAction(uint _candidateNID,uint _constituencyID) public returns (bool) {\r\n\r\n        int constituencyIndex = -1;\r\n\r\n        for (uint i = 0; i < standingConstituencies[_candidateNID].length; i++) {\r\n            if (standingConstituencies[_candidateNID][i].constituencyID == _constituencyID) {\r\n                constituencyIndex = int(i);\r\n                break;\r\n            }\r\n        }\r\n\r\n        standingConstituencies[_candidateNID][uint(constituencyIndex)].totalVotes =\r\n            standingConstituencies[_candidateNID][uint(constituencyIndex)].totalVotes + 1;\r\n        \r\n        return true;\r\n    }\r\n\r\n    //vote count\r\n    function getConstituencyWiseVoteCount(uint _candidateNID,uint _constituencyID) public view returns (uint) {\r\n        uint votes = 0;\r\n\r\n        for (uint j = 0; j < standingConstituencies[_candidateNID].length; j++) {\r\n            \r\n            if (standingConstituencies[_candidateNID][j].constituencyID == _constituencyID) {\r\n                votes = standingConstituencies[_candidateNID][j].totalVotes;\r\n            }\r\n        }\r\n\r\n        return votes;\r\n    }\r\n}\r\n",
  "sourcePath": "D:\\Lecture Videos\\Previous\\_CSE4250\\Hosting\\smart-voting\\contracts\\candidatesInfo.sol",
  "compiler": {
    "name": "solc",
    "version": "0.8.21+commit.d9974bed.Emscripten.clang"
  },
  "schemaVersion": "3.4.13",
  "updatedAt": "2023-11-05T14:11:26.103Z",
  "networkType": "ethereum",
  "devdoc": {
    "kind": "dev",
    "methods": {},
    "version": 1
  },
  "userdoc": {
    "kind": "user",
    "methods": {},
    "version": 1
  }
}