{
  "contractName": "constituencyCenter",
  "abi": [
    {
      "inputs": [
        {
          "internalType": "uint256",
          "name": "",
          "type": "uint256"
        }
      ],
      "name": "centers",
      "outputs": [
        {
          "internalType": "uint256",
          "name": "centerID",
          "type": "uint256"
        },
        {
          "internalType": "string",
          "name": "constituencyName",
          "type": "string"
        },
        {
          "internalType": "string",
          "name": "centerName",
          "type": "string"
        },
        {
          "internalType": "bool",
          "name": "status",
          "type": "bool"
        }
      ],
      "stateMutability": "view",
      "type": "function",
      "constant": true
    },
    {
      "inputs": [
        {
          "internalType": "uint256",
          "name": "",
          "type": "uint256"
        }
      ],
      "name": "constituencies",
      "outputs": [
        {
          "internalType": "uint256",
          "name": "constituencyID",
          "type": "uint256"
        },
        {
          "internalType": "string",
          "name": "constituencyName",
          "type": "string"
        }
      ],
      "stateMutability": "view",
      "type": "function",
      "constant": true
    },
    {
      "inputs": [
        {
          "internalType": "string",
          "name": "_name",
          "type": "string"
        }
      ],
      "name": "addConstituency",
      "outputs": [
        {
          "internalType": "bool",
          "name": "",
          "type": "bool"
        }
      ],
      "stateMutability": "nonpayable",
      "type": "function"
    },
    {
      "inputs": [
        {
          "internalType": "string",
          "name": "_constituencyName",
          "type": "string"
        },
        {
          "internalType": "string",
          "name": "_center",
          "type": "string"
        }
      ],
      "name": "addCenter",
      "outputs": [
        {
          "internalType": "bool",
          "name": "",
          "type": "bool"
        }
      ],
      "stateMutability": "nonpayable",
      "type": "function"
    },
    {
      "inputs": [],
      "name": "getCenterLength",
      "outputs": [
        {
          "internalType": "uint256",
          "name": "",
          "type": "uint256"
        }
      ],
      "stateMutability": "view",
      "type": "function",
      "constant": true
    },
    {
      "inputs": [],
      "name": "getConstituencyLength",
      "outputs": [
        {
          "internalType": "uint256",
          "name": "",
          "type": "uint256"
        }
      ],
      "stateMutability": "view",
      "type": "function",
      "constant": true
    },
    {
      "inputs": [
        {
          "internalType": "uint256",
          "name": "_centerID",
          "type": "uint256"
        },
        {
          "internalType": "string",
          "name": "_constituencyName",
          "type": "string"
        },
        {
          "internalType": "string",
          "name": "_centerName",
          "type": "string"
        }
      ],
      "name": "modifyCenter",
      "outputs": [
        {
          "internalType": "bool",
          "name": "",
          "type": "bool"
        }
      ],
      "stateMutability": "nonpayable",
      "type": "function"
    },
    {
      "inputs": [
        {
          "internalType": "uint256",
          "name": "_centerID",
          "type": "uint256"
        }
      ],
      "name": "removeCenter",
      "outputs": [
        {
          "internalType": "bool",
          "name": "",
          "type": "bool"
        }
      ],
      "stateMutability": "nonpayable",
      "type": "function"
    },
    {
      "inputs": [
        {
          "internalType": "uint256",
          "name": "_centerID",
          "type": "uint256"
        },
        {
          "internalType": "bool",
          "name": "_status",
          "type": "bool"
        }
      ],
      "name": "changeCenterStatus",
      "outputs": [
        {
          "internalType": "bool",
          "name": "",
          "type": "bool"
        }
      ],
      "stateMutability": "nonpayable",
      "type": "function"
    },
    {
      "inputs": [
        {
          "internalType": "uint256",
          "name": "_centerID",
          "type": "uint256"
        }
      ],
      "name": "getCenterStatus",
      "outputs": [
        {
          "internalType": "bool",
          "name": "",
          "type": "bool"
        }
      ],
      "stateMutability": "view",
      "type": "function",
      "constant": true
    },
    {
      "inputs": [
        {
          "internalType": "uint256",
          "name": "_id",
          "type": "uint256"
        }
      ],
      "name": "getSpecificCenter",
      "outputs": [
        {
          "components": [
            {
              "internalType": "uint256",
              "name": "centerID",
              "type": "uint256"
            },
            {
              "internalType": "string",
              "name": "constituencyName",
              "type": "string"
            },
            {
              "internalType": "string",
              "name": "centerName",
              "type": "string"
            },
            {
              "internalType": "bool",
              "name": "status",
              "type": "bool"
            }
          ],
          "internalType": "struct constituencyCenter.Center_Info",
          "name": "",
          "type": "tuple"
        }
      ],
      "stateMutability": "view",
      "type": "function",
      "constant": true
    }
  ],
  "bytecode": "0x60806040525f6001555f600355348015610017575f80fd5b5061106e806100255f395ff3fe608060405234801561000f575f80fd5b50600436106100a6575f3560e01c806383c268a61161006e57806383c268a6146101115780638f7212e6146101245780639209416a14610137578063c943963f14610158578063d5984da314610178578063d892652b1461018b575f80fd5b806305a395a5146100aa5780630b6c2fdf146100d25780630d46c829146100e557806310f5140d146100f757806314e8cf591461010a575b5f80fd5b6100bd6100b8366004610b68565b6101ae565b60405190151581526020015b60405180910390f35b6100bd6100e0366004610ba2565b61024d565b6002545b6040519081526020016100c9565b6100bd610105366004610bd4565b6102dd565b5f546100e9565b6100bd61011f366004610c34565b6103be565b6100bd610132366004610c9c565b61048a565b61014a610145366004610c9c565b6105fd565b6040516100c9929190610cf6565b61016b610166366004610c9c565b6106b0565b6040516100c99190610d0e565b6100bd610186366004610c9c565b6108b8565b61019e610199366004610c9c565b610930565b6040516100c99493929190610d69565b600180545f91826101be83610dbb565b909155505060408051808201909152600180548252602082018481525f805492830181558052825160029092027f290decd9548b62a8d60345a988386fc84ba6bc95484008f6362f93160ef3e563810192835590517f290decd9548b62a8d60345a988386fc84ba6bc95484008f6362f93160ef3e564909101906102429082610e59565b506001949350505050565b5f80805b6002548110156102d357846002828154811061026f5761026f610f15565b905f5260205f2090600402015f0154036102c157836002828154811061029757610297610f15565b5f9182526020909120600490910201600301805460ff1916911515919091179055600191506102d3565b806102cb81610dbb565b915050610251565b5090505b92915050565b600380545f91826102ed83610dbb565b9091555050604080516080810182526003548152602081018581529181018490525f60608201819052600280546001810182559152815160049091027f405787fa12a823e0f2b7631cc41b3ba8828b3321ca811111fa75cd3aa3bb5ace81019182559251919290917f405787fa12a823e0f2b7631cc41b3ba8828b3321ca811111fa75cd3aa3bb5acf909101906103849082610e59565b50604082015160028201906103999082610e59565b50606091909101516003909101805460ff191691151591909117905550600192915050565b60408051608081018252848152602081018481529181018390525f6060820181905260028054600181018255908252825160049091027f405787fa12a823e0f2b7631cc41b3ba8828b3321ca811111fa75cd3aa3bb5ace81019182559351919390917f405787fa12a823e0f2b7631cc41b3ba8828b3321ca811111fa75cd3aa3bb5acf9091019061044f9082610e59565b50604082015160028201906104649082610e59565b50606091909101516003909101805460ff19169115159190911790555060019392505050565b5f805f19815b6002548110156104dc5784600282815481106104ae576104ae610f15565b905f5260205f2090600402015f0154036104ca578091506104dc565b806104d481610dbb565b915050610490565b50805f19146105f657805b6002546104f690600190610f29565b8110156105a057600261050a826001610f3c565b8154811061051a5761051a610f15565b905f5260205f2090600402016002828154811061053957610539610f15565b5f9182526020909120825460049092020190815560018082019061055f90840182610f4f565b5060028181019061057290840182610f4f565b506003918201549101805460ff191660ff90921615159190911790558061059881610dbb565b9150506104e7565b5060028054806105b2576105b2611024565b5f8281526020812060045f1990930192830201818155906105d66001830182610a79565b6105e3600283015f610a79565b50600301805460ff191690559055600191505b5092915050565b5f818154811061060b575f80fd5b5f918252602090912060029091020180546001820180549193509061062f90610dd3565b80601f016020809104026020016040519081016040528092919081815260200182805461065b90610dd3565b80156106a65780601f1061067d576101008083540402835291602001916106a6565b820191905f5260205f20905b81548152906001019060200180831161068957829003601f168201915b5050505050905082565b6106db60405180608001604052805f815260200160608152602001606081526020015f151581525090565b61070660405180608001604052805f815260200160608152602001606081526020015f151581525090565b5f5b6002548110156105f657836002828154811061072657610726610f15565b905f5260205f2090600402015f0154036108a6576002818154811061074d5761074d610f15565b905f5260205f2090600402016040518060800160405290815f820154815260200160018201805461077d90610dd3565b80601f01602080910402602001604051908101604052809291908181526020018280546107a990610dd3565b80156107f45780601f106107cb576101008083540402835291602001916107f4565b820191905f5260205f20905b8154815290600101906020018083116107d757829003601f168201915b5050505050815260200160028201805461080d90610dd3565b80601f016020809104026020016040519081016040528092919081815260200182805461083990610dd3565b80156108845780601f1061085b57610100808354040283529160200191610884565b820191905f5260205f20905b81548152906001019060200180831161086757829003601f168201915b50505091835250506003919091015460ff161515602090910152949350505050565b806108b081610dbb565b915050610708565b5f80805b6002548110156105f65783600282815481106108da576108da610f15565b905f5260205f2090600402015f01540361091e576002818154811061090157610901610f15565b5f91825260209091206003600490920201015460ff1691506105f6565b8061092881610dbb565b9150506108bc565b6002818154811061093f575f80fd5b5f918252602090912060049091020180546001820180549193509061096390610dd3565b80601f016020809104026020016040519081016040528092919081815260200182805461098f90610dd3565b80156109da5780601f106109b1576101008083540402835291602001916109da565b820191905f5260205f20905b8154815290600101906020018083116109bd57829003601f168201915b5050505050908060020180546109ef90610dd3565b80601f0160208091040260200160405190810160405280929190818152602001828054610a1b90610dd3565b8015610a665780601f10610a3d57610100808354040283529160200191610a66565b820191905f5260205f20905b815481529060010190602001808311610a4957829003601f168201915b5050506003909301549192505060ff1684565b508054610a8590610dd3565b5f825580601f10610a94575050565b601f0160209004905f5260205f2090810190610ab09190610ab3565b50565b5b80821115610ac7575f8155600101610ab4565b5090565b634e487b7160e01b5f52604160045260245ffd5b5f82601f830112610aee575f80fd5b813567ffffffffffffffff80821115610b0957610b09610acb565b604051601f8301601f19908116603f01168101908282118183101715610b3157610b31610acb565b81604052838152866020858801011115610b49575f80fd5b836020870160208301375f602085830101528094505050505092915050565b5f60208284031215610b78575f80fd5b813567ffffffffffffffff811115610b8e575f80fd5b610b9a84828501610adf565b949350505050565b5f8060408385031215610bb3575f80fd5b8235915060208301358015158114610bc9575f80fd5b809150509250929050565b5f8060408385031215610be5575f80fd5b823567ffffffffffffffff80821115610bfc575f80fd5b610c0886838701610adf565b93506020850135915080821115610c1d575f80fd5b50610c2a85828601610adf565b9150509250929050565b5f805f60608486031215610c46575f80fd5b83359250602084013567ffffffffffffffff80821115610c64575f80fd5b610c7087838801610adf565b93506040860135915080821115610c85575f80fd5b50610c9286828701610adf565b9150509250925092565b5f60208284031215610cac575f80fd5b5035919050565b5f81518084525f5b81811015610cd757602081850181015186830182015201610cbb565b505f602082860101526020601f19601f83011685010191505092915050565b828152604060208201525f610b9a6040830184610cb3565b60208152815160208201525f602083015160806040840152610d3360a0840182610cb3565b90506040840151601f19848303016060850152610d508282610cb3565b9150506060840151151560808401528091505092915050565b848152608060208201525f610d816080830186610cb3565b8281036040840152610d938186610cb3565b915050821515606083015295945050505050565b634e487b7160e01b5f52601160045260245ffd5b5f60018201610dcc57610dcc610da7565b5060010190565b600181811c90821680610de757607f821691505b602082108103610e0557634e487b7160e01b5f52602260045260245ffd5b50919050565b601f821115610e54575f81815260208120601f850160051c81016020861015610e315750805b601f850160051c820191505b81811015610e5057828155600101610e3d565b5050505b505050565b815167ffffffffffffffff811115610e7357610e73610acb565b610e8781610e818454610dd3565b84610e0b565b602080601f831160018114610eba575f8415610ea35750858301515b5f19600386901b1c1916600185901b178555610e50565b5f85815260208120601f198616915b82811015610ee857888601518255948401946001909101908401610ec9565b5085821015610f0557878501515f19600388901b60f8161c191681555b5050505050600190811b01905550565b634e487b7160e01b5f52603260045260245ffd5b818103818111156102d7576102d7610da7565b808201808211156102d7576102d7610da7565b818103610f5a575050565b610f648254610dd3565b67ffffffffffffffff811115610f7c57610f7c610acb565b610f8a81610e818454610dd3565b5f601f821160018114610fbb575f8315610fa45750848201545b5f19600385901b1c1916600184901b17845561101d565b5f85815260209020601f198416905f86815260209020845b83811015610ff35782860154825560019586019590910190602001610fd3565b508583101561101057818501545f19600388901b60f8161c191681555b50505060018360011b0184555b5050505050565b634e487b7160e01b5f52603160045260245ffdfea264697066735822122087c57c8016fc16fa8b272e337b2c7cdccd2487a0d7a6dc316911438fa06aa18a64736f6c63430008150033",
  "immutableReferences": {},
  "source": "// SPDX-License-Identifier: MIT\r\npragma solidity >=0.4.22 <0.9.0;\r\n\r\ncontract constituencyCenter\r\n{\r\n    struct Constituency_Info{\r\n        uint constituencyID;\r\n        string constituencyName;\r\n    }\r\n    Constituency_Info[] public constituencies;\r\n    uint consID=0;\r\n\r\n    struct Center_Info{\r\n        uint centerID;\r\n        string constituencyName;\r\n        string centerName;\r\n        bool status;\r\n    }\r\n    Center_Info[] public centers;\r\n    uint cnID=0;\r\n\r\n    //add constituency\r\n    function addConstituency(string memory _name) public returns(bool){\r\n        consID++;\r\n        constituencies.push(Constituency_Info(consID, _name));\r\n\r\n        return true;\r\n    }\r\n\r\n    //add center\r\n    function addCenter(string memory _constituencyName, string memory _center) public returns(bool)\r\n    {\r\n        cnID++;\r\n        centers.push(Center_Info(cnID,_constituencyName, _center,false));\r\n        \r\n        return true;\r\n    }\r\n\r\n     //get center length\r\n    function getCenterLength() public view returns(uint)\r\n    {\r\n        return centers.length;\r\n    }\r\n\r\n     //get constituency length\r\n    function getConstituencyLength() public view returns(uint)\r\n    {\r\n        return constituencies.length;\r\n    }\r\n\r\n    //modify center\r\n    function modifyCenter(uint _centerID, string memory _constituencyName, string memory _centerName) public returns(bool)\r\n    {\r\n        centers.push(Center_Info(_centerID,_constituencyName, _centerName,false));\r\n\r\n        return true;\r\n    }\r\n\r\n    function removeCenter(uint _centerID) public returns(bool)\r\n    {\r\n        bool status =false;\r\n        int index=-1;\r\n\r\n        for(uint i=0; i<centers.length; i++)\r\n        {\r\n            if(centers[i].centerID == _centerID)\r\n            {\r\n                index=int(i);\r\n                break;\r\n            }\r\n        }\r\n\r\n        if(index != -1)\r\n        {\r\n          for(uint j=uint(index); j<centers.length-1; j++)\r\n          {\r\n              centers[j]=centers[j+1];\r\n          }\r\n          centers.pop();\r\n          status=true;\r\n        }\r\n\r\n        return status;\r\n    }\r\n\r\n    //change center status\r\n    function changeCenterStatus(uint _centerID, bool _status) public returns(bool)\r\n    {\r\n        bool st =false;\r\n\r\n        for(uint i=0; i<centers.length; i++)\r\n        {\r\n            if(centers[i].centerID == _centerID)\r\n            {\r\n                centers[i].status=_status;\r\n                st=true;\r\n                break;\r\n            }\r\n        }\r\n        return st;\r\n    }\r\n\r\n    //get center status\r\n    function getCenterStatus(uint _centerID) public view returns(bool)\r\n    {\r\n        bool st=false;\r\n\r\n        for(uint i=0; i<centers.length; i++)\r\n        {\r\n            if(centers[i].centerID == _centerID)\r\n            {\r\n                st=centers[i].status;\r\n                break;\r\n            }\r\n        }\r\n        return st;\r\n    }\r\n\r\n    //get center data\r\n    function getSpecificCenter(uint _id) public view returns(Center_Info memory)\r\n    {\r\n        Center_Info memory emptyData;\r\n\r\n        for(uint i=0; i<centers.length; i++)\r\n        {\r\n            if(centers[i].centerID == _id)\r\n            {\r\n               return centers[i];\r\n            }\r\n        }\r\n        return emptyData;\r\n    }\r\n}",
  "sourcePath": "D:\\Lecture Videos\\Previous\\_CSE4250\\Hosting\\smart-voting\\contracts\\constituencyCenter.sol",
  "compiler": {
    "name": "solc",
    "version": "0.8.21+commit.d9974bed.Emscripten.clang"
  },
  "schemaVersion": "3.4.13",
  "updatedAt": "2023-11-05T14:09:14.846Z",
  "networkType": "ethereum",
  "devdoc": {
    "kind": "dev",
    "methods": {},
    "version": 1
  },
  "userdoc": {
    "kind": "user",
    "methods": {},
    "version": 1
  }
}