{
  "contractName": "politicalParty",
  "abi": [
    {
      "inputs": [
        {
          "internalType": "uint256",
          "name": "",
          "type": "uint256"
        }
      ],
      "name": "parties",
      "outputs": [
        {
          "internalType": "uint256",
          "name": "partyID",
          "type": "uint256"
        },
        {
          "internalType": "string",
          "name": "partyName",
          "type": "string"
        },
        {
          "internalType": "string",
          "name": "partySymbol",
          "type": "string"
        },
        {
          "internalType": "string",
          "name": "cid",
          "type": "string"
        },
        {
          "internalType": "uint256",
          "name": "participateSeat",
          "type": "uint256"
        }
      ],
      "stateMutability": "view",
      "type": "function",
      "constant": true
    },
    {
      "inputs": [
        {
          "internalType": "string",
          "name": "_name",
          "type": "string"
        },
        {
          "internalType": "string",
          "name": "_symbol",
          "type": "string"
        },
        {
          "internalType": "string",
          "name": "_cid",
          "type": "string"
        }
      ],
      "name": "setParty",
      "outputs": [
        {
          "internalType": "bool",
          "name": "",
          "type": "bool"
        }
      ],
      "stateMutability": "nonpayable",
      "type": "function"
    },
    {
      "inputs": [
        {
          "internalType": "uint256",
          "name": "_partyID",
          "type": "uint256"
        }
      ],
      "name": "deleteParty",
      "outputs": [
        {
          "internalType": "bool",
          "name": "",
          "type": "bool"
        }
      ],
      "stateMutability": "nonpayable",
      "type": "function"
    },
    {
      "inputs": [],
      "name": "getLength",
      "outputs": [
        {
          "internalType": "uint256",
          "name": "",
          "type": "uint256"
        }
      ],
      "stateMutability": "view",
      "type": "function",
      "constant": true
    },
    {
      "inputs": [
        {
          "internalType": "uint256",
          "name": "_id",
          "type": "uint256"
        }
      ],
      "name": "increaseSeat",
      "outputs": [
        {
          "internalType": "bool",
          "name": "",
          "type": "bool"
        }
      ],
      "stateMutability": "nonpayable",
      "type": "function"
    },
    {
      "inputs": [
        {
          "internalType": "uint256",
          "name": "_id",
          "type": "uint256"
        }
      ],
      "name": "decreaseSeat",
      "outputs": [
        {
          "internalType": "bool",
          "name": "",
          "type": "bool"
        }
      ],
      "stateMutability": "nonpayable",
      "type": "function"
    }
  ],
  "bytecode": "0x60806040526064600155348015610014575f80fd5b50610b2f806100225f395ff3fe608060405234801561000f575f80fd5b5060043610610060575f3560e01c80630fc49ddd1461006457806370651a181461008c578063b3243807146100b0578063be1c766b146100c3578063d87324e0146100d3578063dcfc6fa2146100e6575b5f80fd5b610077610072366004610698565b6100f9565b60405190151581526020015b60405180910390f35b61009f61009a366004610698565b610271565b6040516100839594939291906106f2565b6100776100be3660046107e0565b610442565b5f54604051908152602001610083565b6100776100e1366004610698565b610530565b6100776100f4366004610698565b6105d2565b5f805f19815b5f5481101561014957845f828154811061011b5761011b610862565b905f5260205f2090600502015f01540361013757809150610149565b806101418161088a565b9150506100ff565b50805f191461026a57805b5f54610162906001906108a2565b81101561020b575f6101758260016108bb565b8154811061018557610185610862565b905f5260205f2090600502015f82815481106101a3576101a3610862565b5f918252602090912082546005909202019081556001808201906101c990840182610954565b506002818101906101dc90840182610954565b506003818101906101ef90840182610954565b50600491820154910155806102038161088a565b915050610154565b505f80548061021c5761021c610a2f565b5f8281526020812060055f1990930192830201818155906102406001830182610646565b61024d600283015f610646565b61025a600383015f610646565b600482015f905550509055600191505b5092915050565b5f818154811061027f575f80fd5b5f91825260209091206005909102018054600182018054919350906102a3906108ce565b80601f01602080910402602001604051908101604052809291908181526020018280546102cf906108ce565b801561031a5780601f106102f15761010080835404028352916020019161031a565b820191905f5260205f20905b8154815290600101906020018083116102fd57829003601f168201915b50505050509080600201805461032f906108ce565b80601f016020809104026020016040519081016040528092919081815260200182805461035b906108ce565b80156103a65780601f1061037d576101008083540402835291602001916103a6565b820191905f5260205f20905b81548152906001019060200180831161038957829003601f168201915b5050505050908060030180546103bb906108ce565b80601f01602080910402602001604051908101604052809291908181526020018280546103e7906108ce565b80156104325780601f1061040957610100808354040283529160200191610432565b820191905f5260205f20905b81548152906001019060200180831161041557829003601f168201915b5050505050908060040154905085565b600180545f91826104528361088a565b90915550506040805160a08101825260018054825260208201878152928201869052606082018590525f60808301819052805491820181558052815160059091027f290decd9548b62a8d60345a988386fc84ba6bc95484008f6362f93160ef3e56381019182559251919290917f290decd9548b62a8d60345a988386fc84ba6bc95484008f6362f93160ef3e564909101906104ee9082610a43565b50604082015160028201906105039082610a43565b50606082015160038201906105189082610a43565b50608082015181600401555050600190509392505050565b5f80805b5f5481101561026a57835f828154811061055057610550610862565b905f5260205f2090600502015f0154036105c0575f818154811061057657610576610862565b905f5260205f20906005020160040154600161059291906108bb565b5f82815481106105a4576105a4610862565b905f5260205f209060050201600401819055506001915061026a565b806105ca8161088a565b915050610534565b5f80805b5f5481101561026a57835f82815481106105f2576105f2610862565b905f5260205f2090600502015f0154036106345760015f828154811061061a5761061a610862565b905f5260205f2090600502016004015461059291906108a2565b8061063e8161088a565b9150506105d6565b508054610652906108ce565b5f825580601f10610661575050565b601f0160209004905f5260205f209081019061067d9190610680565b50565b5b80821115610694575f8155600101610681565b5090565b5f602082840312156106a8575f80fd5b5035919050565b5f81518084525f5b818110156106d3576020818501810151868301820152016106b7565b505f602082860101526020601f19601f83011685010191505092915050565b85815260a060208201525f61070a60a08301876106af565b828103604084015261071c81876106af565b9050828103606084015261073081866106af565b9150508260808301529695505050505050565b634e487b7160e01b5f52604160045260245ffd5b5f82601f830112610766575f80fd5b813567ffffffffffffffff8082111561078157610781610743565b604051601f8301601f19908116603f011681019082821181831017156107a9576107a9610743565b816040528381528660208588010111156107c1575f80fd5b836020870160208301375f602085830101528094505050505092915050565b5f805f606084860312156107f2575f80fd5b833567ffffffffffffffff80821115610809575f80fd5b61081587838801610757565b9450602086013591508082111561082a575f80fd5b61083687838801610757565b9350604086013591508082111561084b575f80fd5b5061085886828701610757565b9150509250925092565b634e487b7160e01b5f52603260045260245ffd5b634e487b7160e01b5f52601160045260245ffd5b5f6001820161089b5761089b610876565b5060010190565b818103818111156108b5576108b5610876565b92915050565b808201808211156108b5576108b5610876565b600181811c908216806108e257607f821691505b60208210810361090057634e487b7160e01b5f52602260045260245ffd5b50919050565b601f82111561094f575f81815260208120601f850160051c8101602086101561092c5750805b601f850160051c820191505b8181101561094b57828155600101610938565b5050505b505050565b81810361095f575050565b61096982546108ce565b67ffffffffffffffff81111561098157610981610743565b6109958161098f84546108ce565b84610906565b5f601f8211600181146109c6575f83156109af5750848201545b5f19600385901b1c1916600184901b178455610a28565b5f85815260209020601f198416905f86815260209020845b838110156109fe57828601548255600195860195909101906020016109de565b5085831015610a1b57818501545f19600388901b60f8161c191681555b50505060018360011b0184555b5050505050565b634e487b7160e01b5f52603160045260245ffd5b815167ffffffffffffffff811115610a5d57610a5d610743565b610a6b8161098f84546108ce565b602080601f831160018114610a9e575f8415610a875750858301515b5f19600386901b1c1916600185901b17855561094b565b5f85815260208120601f198616915b82811015610acc57888601518255948401946001909101908401610aad565b5085821015610ae957878501515f19600388901b60f8161c191681555b5050505050600190811b0190555056fea2646970667358221220694854d4d85c99bfbabe3251eaaa4d1444fc25e2ccc9b0d57d8dfd5cb06ea8cb64736f6c63430008150033",
  "immutableReferences": {},
  "source": "//SPDX-License-Identifier:MIT\r\npragma solidity >=0.4.22 <0.9.0;\r\n\r\ncontract politicalParty {\r\n    \r\n    struct PartyData {\r\n        uint partyID;\r\n        string partyName;\r\n        string partySymbol;\r\n        string cid;\r\n        uint participateSeat;\r\n    }\r\n\r\n    PartyData[] public parties;\r\n    uint id = 100;\r\n\r\n    // party add\r\n    function setParty(string memory _name, string memory _symbol, string memory _cid) public returns (bool){\r\n        \r\n        id++;\r\n        parties.push(PartyData(id, _name, _symbol, _cid, 0));\r\n\r\n        return true;\r\n    }\r\n\r\n    //delete party\r\n    function deleteParty(uint _partyID) public returns (bool) {\r\n        bool status = false;\r\n        int index = -1;\r\n\r\n        for (uint i = 0; i < parties.length; i++) {\r\n            if (parties[i].partyID == _partyID) {\r\n                index = int(i);\r\n                break;\r\n            }\r\n        }\r\n\r\n        if (index != -1) {\r\n            for (uint j = uint(index); j < parties.length - 1; j++) {\r\n                parties[j] = parties[j + 1];\r\n            }\r\n            parties.pop();\r\n            status = true;\r\n        }\r\n\r\n        return status;\r\n    }\r\n\r\n    //get length\r\n    function getLength() public view returns (uint) {\r\n        return parties.length;\r\n    }\r\n\r\n    //increase participate seat number\r\n    function increaseSeat(uint _id) public returns (bool) {\r\n        bool status=false;\r\n\r\n        for(uint i=0; i<parties.length; i++)\r\n        {\r\n            if(parties[i].partyID == _id)\r\n            {\r\n                parties[i].participateSeat= parties[i].participateSeat + 1;\r\n                status=true;\r\n                break;\r\n            }\r\n        }\r\n        return status;\r\n    }\r\n\r\n    //deccrease participate seat number\r\n    function decreaseSeat(uint _id) public returns (bool) {\r\n        bool status=false;\r\n\r\n        for(uint i=0; i<parties.length; i++)\r\n        {\r\n            if(parties[i].partyID == _id)\r\n            {\r\n                parties[i].participateSeat= parties[i].participateSeat - 1;\r\n                status=true;\r\n                break;\r\n            }\r\n        }\r\n        return status;\r\n    }\r\n}\r\n",
  "sourcePath": "D:\\Lecture Videos\\Previous\\_CSE4250\\Hosting\\smart-voting\\contracts\\politicalParty.sol",
  "compiler": {
    "name": "solc",
    "version": "0.8.21+commit.d9974bed.Emscripten.clang"
  },
  "schemaVersion": "3.4.13",
  "updatedAt": "2023-11-05T14:12:42.183Z",
  "networkType": "ethereum",
  "devdoc": {
    "kind": "dev",
    "methods": {},
    "version": 1
  },
  "userdoc": {
    "kind": "user",
    "methods": {},
    "version": 1
  }
}