{
  "contractName": "presidingOfficerData",
  "abi": [
    {
      "inputs": [
        {
          "internalType": "uint256",
          "name": "",
          "type": "uint256"
        }
      ],
      "name": "presidingOfficers",
      "outputs": [
        {
          "internalType": "uint256",
          "name": "presidingOfficerID",
          "type": "uint256"
        },
        {
          "internalType": "string",
          "name": "name",
          "type": "string"
        },
        {
          "internalType": "uint256",
          "name": "centerID",
          "type": "uint256"
        },
        {
          "internalType": "string",
          "name": "pass",
          "type": "string"
        }
      ],
      "stateMutability": "view",
      "type": "function",
      "constant": true
    },
    {
      "inputs": [
        {
          "internalType": "uint256",
          "name": "_uid",
          "type": "uint256"
        },
        {
          "internalType": "string",
          "name": "_name",
          "type": "string"
        },
        {
          "internalType": "uint256",
          "name": "_centerId",
          "type": "uint256"
        },
        {
          "internalType": "string",
          "name": "_pass",
          "type": "string"
        }
      ],
      "name": "setPresidingOfficer",
      "outputs": [],
      "stateMutability": "nonpayable",
      "type": "function"
    },
    {
      "inputs": [
        {
          "internalType": "uint256",
          "name": "_presidingOfficerID",
          "type": "uint256"
        }
      ],
      "name": "deletePresidingOfficer",
      "outputs": [
        {
          "internalType": "bool",
          "name": "",
          "type": "bool"
        }
      ],
      "stateMutability": "nonpayable",
      "type": "function"
    },
    {
      "inputs": [],
      "name": "getLength",
      "outputs": [
        {
          "internalType": "uint256",
          "name": "",
          "type": "uint256"
        }
      ],
      "stateMutability": "view",
      "type": "function",
      "constant": true
    },
    {
      "inputs": [
        {
          "internalType": "uint256",
          "name": "_presidingOfficerID",
          "type": "uint256"
        },
        {
          "internalType": "string",
          "name": "_pass",
          "type": "string"
        }
      ],
      "name": "verifyPresidingOfficer",
      "outputs": [
        {
          "internalType": "int256",
          "name": "",
          "type": "int256"
        }
      ],
      "stateMutability": "view",
      "type": "function",
      "constant": true
    },
    {
      "inputs": [
        {
          "internalType": "uint256",
          "name": "_presidingOfficerID",
          "type": "uint256"
        },
        {
          "internalType": "uint256",
          "name": "_centerID",
          "type": "uint256"
        }
      ],
      "name": "allocateCenter",
      "outputs": [
        {
          "internalType": "bool",
          "name": "",
          "type": "bool"
        }
      ],
      "stateMutability": "nonpayable",
      "type": "function"
    }
  ],
  "bytecode": "0x608060405234801561000f575f80fd5b50610b508061001d5f395ff3fe608060405234801561000f575f80fd5b506004361061005f575f3560e01c80621349d014610063578063276efb691461008b578063670f59a31461009e578063ba8ef594146100b3578063be1c766b146100d4578063ecb2c1a3146100db575b5f80fd5b6100766100713660046105ea565b6100fe565b60405190151581526020015b60405180910390f35b61007661009936600461060a565b610179565b6100b16100ac3660046106be565b6102da565b005b6100c66100c1366004610730565b610391565b604051908152602001610082565b5f546100c6565b6100ee6100e936600461060a565b610453565b60405161008294939291906107c1565b5f80805b5f5481101561016f57845f828154811061011e5761011e6107fc565b905f5260205f2090600402015f01540361015d57835f8281548110610145576101456107fc565b905f5260205f20906004020160020181905550600191505b8061016781610824565b915050610102565b5090505b92915050565b5f805f19815b5f548110156101c957845f828154811061019b5761019b6107fc565b905f5260205f2090600402015f0154036101b7578091506101c9565b806101c181610824565b91505061017f565b50805f19146102d357805b5f546101e29060019061083c565b81101561027f575f6101f582600161084f565b81548110610205576102056107fc565b905f5260205f2090600402015f8281548110610223576102236107fc565b5f91825260209091208254600490920201908155600180820190610249908401826108e8565b50600282015481600201556003820181600301908161026891906108e8565b50905050808061027790610824565b9150506101d4565b505f805480610290576102906109c3565b5f8281526020812060045f1990930192830201818155906102b46001830182610598565b600282015f9055600382015f6102ca9190610598565b50509055600191505b5092915050565b6040805160808101825285815260208101858152918101849052606081018390525f8054600181018255908052815160049091027f290decd9548b62a8d60345a988386fc84ba6bc95484008f6362f93160ef3e56381019182559251919290917f290decd9548b62a8d60345a988386fc84ba6bc95484008f6362f93160ef3e5649091019061036990826109d7565b50604082015160028201556060820151600382019061038890826109d7565b50505050505050565b5f5f19815b5f5481101561016f57845f82815481106103b2576103b26107fc565b905f5260205f2090600402015f01540361044157836040516020016103d79190610a8d565b604051602081830303815290604052805190602001205f82815481106103ff576103ff6107fc565b905f5260205f20906004020160030160405160200161041e9190610aa8565b60405160208183030381529060405280519060200120036104415780915061016f565b8061044b81610824565b915050610396565b5f8181548110610461575f80fd5b5f918252602090912060049091020180546001820180549193509061048590610862565b80601f01602080910402602001604051908101604052809291908181526020018280546104b190610862565b80156104fc5780601f106104d3576101008083540402835291602001916104fc565b820191905f5260205f20905b8154815290600101906020018083116104df57829003601f168201915b50505050509080600201549080600301805461051790610862565b80601f016020809104026020016040519081016040528092919081815260200182805461054390610862565b801561058e5780601f106105655761010080835404028352916020019161058e565b820191905f5260205f20905b81548152906001019060200180831161057157829003601f168201915b5050505050905084565b5080546105a490610862565b5f825580601f106105b3575050565b601f0160209004905f5260205f20908101906105cf91906105d2565b50565b5b808211156105e6575f81556001016105d3565b5090565b5f80604083850312156105fb575f80fd5b50508035926020909101359150565b5f6020828403121561061a575f80fd5b5035919050565b634e487b7160e01b5f52604160045260245ffd5b5f82601f830112610644575f80fd5b813567ffffffffffffffff8082111561065f5761065f610621565b604051601f8301601f19908116603f0116810190828211818310171561068757610687610621565b8160405283815286602085880101111561069f575f80fd5b836020870160208301375f602085830101528094505050505092915050565b5f805f80608085870312156106d1575f80fd5b84359350602085013567ffffffffffffffff808211156106ef575f80fd5b6106fb88838901610635565b9450604087013593506060870135915080821115610717575f80fd5b5061072487828801610635565b91505092959194509250565b5f8060408385031215610741575f80fd5b82359150602083013567ffffffffffffffff81111561075e575f80fd5b61076a85828601610635565b9150509250929050565b5f5b8381101561078e578181015183820152602001610776565b50505f910152565b5f81518084526107ad816020860160208601610774565b601f01601f19169290920160200192915050565b848152608060208201525f6107d96080830186610796565b84604084015282810360608401526107f18185610796565b979650505050505050565b634e487b7160e01b5f52603260045260245ffd5b634e487b7160e01b5f52601160045260245ffd5b5f6001820161083557610835610810565b5060010190565b8181038181111561017357610173610810565b8082018082111561017357610173610810565b600181811c9082168061087657607f821691505b60208210810361089457634e487b7160e01b5f52602260045260245ffd5b50919050565b601f8211156108e3575f81815260208120601f850160051c810160208610156108c05750805b601f850160051c820191505b818110156108df578281556001016108cc565b5050505b505050565b8181036108f3575050565b6108fd8254610862565b67ffffffffffffffff81111561091557610915610621565b610929816109238454610862565b8461089a565b5f601f82116001811461095a575f83156109435750848201545b5f19600385901b1c1916600184901b1784556109bc565b5f85815260209020601f198416905f86815260209020845b838110156109925782860154825560019586019590910190602001610972565b50858310156109af57818501545f19600388901b60f8161c191681555b50505060018360011b0184555b5050505050565b634e487b7160e01b5f52603160045260245ffd5b815167ffffffffffffffff8111156109f1576109f1610621565b6109ff816109238454610862565b602080601f831160018114610a32575f8415610a1b5750858301515b5f19600386901b1c1916600185901b1785556108df565b5f85815260208120601f198616915b82811015610a6057888601518255948401946001909101908401610a41565b5085821015610a7d57878501515f19600388901b60f8161c191681555b5050505050600190811b01905550565b5f8251610a9e818460208701610774565b9190910192915050565b5f808354610ab581610862565b60018281168015610acd5760018114610ae257610b0e565b60ff1984168752821515830287019450610b0e565b875f526020805f205f5b85811015610b055781548a820152908401908201610aec565b50505082870194505b5092969550505050505056fea264697066735822122011ecfffe0ae7769780cfc0870aef9b2e2ae3fea2c592d55038e050271cabebb664736f6c63430008150033",
  "immutableReferences": {},
  "source": "//SPDX-License-Identifier:MIT\r\npragma solidity >=0.4.22 <0.9.0;\r\n\r\ncontract presidingOfficerData {\r\n    \r\n      struct presidingOfficer { \r\n      uint presidingOfficerID;\r\n      string name;\r\n      uint centerID;\r\n      string pass;\r\n   }\r\n\r\n   presidingOfficer[] public presidingOfficers;\r\n\r\n    // presidingOfficer add\r\n   function setPresidingOfficer(uint _uid, string memory _name, uint _centerId, string memory _pass) public\r\n    {\r\n        presidingOfficers.push(presidingOfficer(_uid, _name, _centerId, _pass));\r\n    }\r\n\r\n    //delete presidingOfficer\r\n    function deletePresidingOfficer(uint _presidingOfficerID) public returns(bool)\r\n    {\r\n        bool status =false;\r\n        int index=-1;\r\n\r\n        for(uint i=0; i<presidingOfficers.length; i++)\r\n        {\r\n            if(presidingOfficers[i].presidingOfficerID == _presidingOfficerID)\r\n            {\r\n                index=int(i);\r\n                break;\r\n            }\r\n        }\r\n\r\n        if(index != -1)\r\n        {\r\n          for(uint j=uint(index); j<presidingOfficers.length-1; j++)\r\n          {\r\n              presidingOfficers[j]=presidingOfficers[j+1];\r\n          }\r\n          presidingOfficers.pop();\r\n          status=true;\r\n        }\r\n\r\n        return status;\r\n    }\r\n\r\n    //get length\r\n    function getLength() public view returns(uint)\r\n    {\r\n        return presidingOfficers.length;\r\n    }\r\n\r\n    //verify presidingOfficer\r\n    function verifyPresidingOfficer(uint _presidingOfficerID, string memory _pass) public view returns(int)\r\n    {\r\n        int index=-1;\r\n\r\n        for(uint i=0; i<presidingOfficers.length; i++)\r\n        {\r\n            if(presidingOfficers[i].presidingOfficerID == _presidingOfficerID)\r\n            {\r\n                 if( keccak256(abi.encodePacked(presidingOfficers[i].pass)) == keccak256(abi.encodePacked(_pass)))\r\n                {\r\n                  \r\n                  index=int(i);\r\n                  break;\r\n                }\r\n            }\r\n        }\r\n        return index;\r\n    }\r\n\r\n    //allocate center\r\n    function allocateCenter(uint _presidingOfficerID, uint _centerID) public returns(bool)\r\n    {\r\n        bool status=false;\r\n\r\n        for(uint i=0; i<presidingOfficers.length; i++)\r\n        {\r\n            if(presidingOfficers[i].presidingOfficerID == _presidingOfficerID)\r\n            {\r\n                presidingOfficers[i].centerID=_centerID;\r\n                status=true;\r\n            }\r\n        }\r\n        return status;\r\n    }\r\n}\r\n\r\n\r\n",
  "sourcePath": "D:\\Lecture Videos\\Previous\\_CSE4250\\Hosting\\smart-voting\\contracts\\presidingOfficerData.sol",
  "compiler": {
    "name": "solc",
    "version": "0.8.21+commit.d9974bed.Emscripten.clang"
  },
  "schemaVersion": "3.4.13",
  "updatedAt": "2023-11-05T14:10:40.595Z",
  "networkType": "ethereum",
  "devdoc": {
    "kind": "dev",
    "methods": {},
    "version": 1
  },
  "userdoc": {
    "kind": "user",
    "methods": {},
    "version": 1
  }
}