{
  "contractName": "votersInfo",
  "abi": [
    {
      "inputs": [
        {
          "internalType": "uint256",
          "name": "",
          "type": "uint256"
        }
      ],
      "name": "voters",
      "outputs": [
        {
          "internalType": "uint256",
          "name": "NID",
          "type": "uint256"
        },
        {
          "internalType": "string",
          "name": "name",
          "type": "string"
        },
        {
          "internalType": "string",
          "name": "fatherName",
          "type": "string"
        },
        {
          "internalType": "string",
          "name": "motherName",
          "type": "string"
        },
        {
          "internalType": "uint256",
          "name": "age",
          "type": "uint256"
        },
        {
          "internalType": "string",
          "name": "gender",
          "type": "string"
        },
        {
          "internalType": "uint256",
          "name": "centerID",
          "type": "uint256"
        },
        {
          "internalType": "string",
          "name": "imageURL",
          "type": "string"
        },
        {
          "internalType": "bool",
          "name": "votingStatus",
          "type": "bool"
        }
      ],
      "stateMutability": "view",
      "type": "function",
      "constant": true
    },
    {
      "inputs": [
        {
          "internalType": "uint256",
          "name": "_nid",
          "type": "uint256"
        },
        {
          "internalType": "string",
          "name": "_name",
          "type": "string"
        },
        {
          "internalType": "string",
          "name": "_fatherName",
          "type": "string"
        },
        {
          "internalType": "string",
          "name": "_motherName",
          "type": "string"
        },
        {
          "internalType": "uint256",
          "name": "_age",
          "type": "uint256"
        },
        {
          "internalType": "string",
          "name": "_gender",
          "type": "string"
        },
        {
          "internalType": "uint256",
          "name": "_centerID",
          "type": "uint256"
        },
        {
          "internalType": "string",
          "name": "_imageURL",
          "type": "string"
        }
      ],
      "name": "setVoter",
      "outputs": [
        {
          "internalType": "bool",
          "name": "",
          "type": "bool"
        }
      ],
      "stateMutability": "nonpayable",
      "type": "function"
    },
    {
      "inputs": [
        {
          "internalType": "uint256",
          "name": "_nid",
          "type": "uint256"
        }
      ],
      "name": "deleteVoter",
      "outputs": [
        {
          "internalType": "bool",
          "name": "",
          "type": "bool"
        }
      ],
      "stateMutability": "nonpayable",
      "type": "function"
    },
    {
      "inputs": [],
      "name": "getLength",
      "outputs": [
        {
          "internalType": "uint256",
          "name": "",
          "type": "uint256"
        }
      ],
      "stateMutability": "view",
      "type": "function",
      "constant": true
    },
    {
      "inputs": [
        {
          "internalType": "uint256",
          "name": "_NID",
          "type": "uint256"
        }
      ],
      "name": "verifyVoterInfo",
      "outputs": [
        {
          "components": [
            {
              "internalType": "uint256",
              "name": "NID",
              "type": "uint256"
            },
            {
              "internalType": "string",
              "name": "name",
              "type": "string"
            },
            {
              "internalType": "string",
              "name": "fatherName",
              "type": "string"
            },
            {
              "internalType": "string",
              "name": "motherName",
              "type": "string"
            },
            {
              "internalType": "uint256",
              "name": "age",
              "type": "uint256"
            },
            {
              "internalType": "string",
              "name": "gender",
              "type": "string"
            },
            {
              "internalType": "uint256",
              "name": "centerID",
              "type": "uint256"
            },
            {
              "internalType": "string",
              "name": "imageURL",
              "type": "string"
            },
            {
              "internalType": "bool",
              "name": "votingStatus",
              "type": "bool"
            }
          ],
          "internalType": "struct votersInfo.Voter",
          "name": "",
          "type": "tuple"
        }
      ],
      "stateMutability": "view",
      "type": "function",
      "constant": true
    },
    {
      "inputs": [],
      "name": "getCitizenStatus",
      "outputs": [
        {
          "internalType": "uint256[]",
          "name": "",
          "type": "uint256[]"
        }
      ],
      "stateMutability": "view",
      "type": "function",
      "constant": true
    },
    {
      "inputs": [
        {
          "internalType": "uint256",
          "name": "_centerID",
          "type": "uint256"
        }
      ],
      "name": "constituencyAndCenterWiseVoterIndex",
      "outputs": [
        {
          "internalType": "uint256[]",
          "name": "",
          "type": "uint256[]"
        }
      ],
      "stateMutability": "view",
      "type": "function",
      "constant": true
    },
    {
      "inputs": [
        {
          "internalType": "uint256",
          "name": "_NID",
          "type": "uint256"
        }
      ],
      "name": "castVote",
      "outputs": [
        {
          "internalType": "bool",
          "name": "",
          "type": "bool"
        }
      ],
      "stateMutability": "nonpayable",
      "type": "function"
    }
  ],
  "bytecode": "0x608060405234801561000f575f80fd5b506114478061001d5f395ff3fe608060405234801561000f575f80fd5b5060043610610085575f3560e01c80639a8a0db0116100585780639a8a0db014610108578063be1c766b1461011b578063da58c7d91461012b578063e1777b9614610153575f80fd5b8063382b7416146100895780633eb76b9c146100b257806353ede9d3146100d557806382b2daf1146100e8575b5f80fd5b61009c610097366004610e08565b61015b565b6040516100a99190610e1f565b60405180910390f35b6100c56100c0366004610e08565b61022b565b60405190151581526020016100a9565b6100c56100e3366004610eff565b6102b2565b6100fb6100f6366004610e08565b6103fa565b6040516100a99190611027565b6100c5610116366004610e08565b61077e565b5f546040519081526020016100a9565b61013e610139366004610e08565b610973565b6040516100a9999897969594939291906110f1565b61009c610c6b565b60605f61016783610d17565b90505f8167ffffffffffffffff81111561018357610183610e62565b6040519080825280602002602001820160405280156101ac578160200160208202803683370190505b5090505f805b5f5481101561022157855f82815481106101ce576101ce611180565b905f5260205f209060090201600601540361020f57808383815181106101f6576101f6611180565b60209081029190910101528161020b816111a8565b9250505b80610219816111a8565b9150506101b2565b5090949350505050565b5f80805b5f548110156102ab57835f828154811061024b5761024b611180565b905f5260205f2090600902015f0154036102995760015f828154811061027357610273611180565b5f9182526020909120600990910201600801805460ff1916911515919091179055600191505b806102a3816111a8565b91505061022f565b5092915050565b604080516101208101825289815260208101898152918101889052606081018790526080810186905260a0810185905260c0810184905260e081018390525f6101008201819052805460018181018355828052835160099092027f290decd9548b62a8d60345a988386fc84ba6bc95484008f6362f93160ef3e5638101928355945192949093927f290decd9548b62a8d60345a988386fc84ba6bc95484008f6362f93160ef3e564909101906103689082611240565b506040820151600282019061037d9082611240565b50606082015160038201906103929082611240565b506080820151600482015560a082015160058201906103b19082611240565b5060c0820151600682015560e082015160078201906103d09082611240565b5061010091909101516008909101805460ff19169115159190911790559998505050505050505050565b610402610d6c565b61040a610d6c565b5f5b5f548110156102ab57835f828154811061042857610428611180565b905f5260205f2090600902015f01540361076c575f818154811061044e5761044e611180565b905f5260205f209060090201604051806101200160405290815f820154815260200160018201805461047f906111c0565b80601f01602080910402602001604051908101604052809291908181526020018280546104ab906111c0565b80156104f65780601f106104cd576101008083540402835291602001916104f6565b820191905f5260205f20905b8154815290600101906020018083116104d957829003601f168201915b5050505050815260200160028201805461050f906111c0565b80601f016020809104026020016040519081016040528092919081815260200182805461053b906111c0565b80156105865780601f1061055d57610100808354040283529160200191610586565b820191905f5260205f20905b81548152906001019060200180831161056957829003601f168201915b5050505050815260200160038201805461059f906111c0565b80601f01602080910402602001604051908101604052809291908181526020018280546105cb906111c0565b80156106165780601f106105ed57610100808354040283529160200191610616565b820191905f5260205f20905b8154815290600101906020018083116105f957829003601f168201915b5050505050815260200160048201548152602001600582018054610639906111c0565b80601f0160208091040260200160405190810160405280929190818152602001828054610665906111c0565b80156106b05780601f10610687576101008083540402835291602001916106b0565b820191905f5260205f20905b81548152906001019060200180831161069357829003601f168201915b50505050508152602001600682015481526020016007820180546106d3906111c0565b80601f01602080910402602001604051908101604052809291908181526020018280546106ff906111c0565b801561074a5780601f106107215761010080835404028352916020019161074a565b820191905f5260205f20905b81548152906001019060200180831161072d57829003601f168201915b50505091835250506008919091015460ff161515602090910152949350505050565b80610776816111a8565b91505061040c565b5f805f19815b5f548110156107ce57845f82815481106107a0576107a0611180565b905f5260205f2090600902015f0154036107bc578091506107ce565b806107c6816111a8565b915050610784565b50805f19146102ab57805b5f546107e7906001906112fc565b8110156108e0575f6107fa826001611315565b8154811061080a5761080a611180565b905f5260205f2090600902015f828154811061082857610828611180565b5f9182526020909120825460099092020190815560018082019061084e90840182611328565b5060028181019061086190840182611328565b5060038181019061087490840182611328565b5060048201548160040155600582018160050190816108939190611328565b5060068201548160060155600782018160070190816108b29190611328565b506008918201549101805460ff191660ff9092161515919091179055806108d8816111a8565b9150506107d9565b505f8054806108f1576108f16113fd565b5f8281526020812060095f1990930192830201818155906109156001830182610db6565b610922600283015f610db6565b61092f600383015f610db6565b600482015f9055600582015f6109459190610db6565b600682015f9055600782015f61095b9190610db6565b50600801805460ff1916905590555060019392505050565b5f8181548110610981575f80fd5b5f91825260209091206009909102018054600182018054919350906109a5906111c0565b80601f01602080910402602001604051908101604052809291908181526020018280546109d1906111c0565b8015610a1c5780601f106109f357610100808354040283529160200191610a1c565b820191905f5260205f20905b8154815290600101906020018083116109ff57829003601f168201915b505050505090806002018054610a31906111c0565b80601f0160208091040260200160405190810160405280929190818152602001828054610a5d906111c0565b8015610aa85780601f10610a7f57610100808354040283529160200191610aa8565b820191905f5260205f20905b815481529060010190602001808311610a8b57829003601f168201915b505050505090806003018054610abd906111c0565b80601f0160208091040260200160405190810160405280929190818152602001828054610ae9906111c0565b8015610b345780601f10610b0b57610100808354040283529160200191610b34565b820191905f5260205f20905b815481529060010190602001808311610b1757829003601f168201915b505050505090806004015490806005018054610b4f906111c0565b80601f0160208091040260200160405190810160405280929190818152602001828054610b7b906111c0565b8015610bc65780601f10610b9d57610100808354040283529160200191610bc6565b820191905f5260205f20905b815481529060010190602001808311610ba957829003601f168201915b505050505090806006015490806007018054610be1906111c0565b80601f0160208091040260200160405190810160405280929190818152602001828054610c0d906111c0565b8015610c585780601f10610c2f57610100808354040283529160200191610c58565b820191905f5260205f20905b815481529060010190602001808311610c3b57829003601f168201915b5050506008909301549192505060ff1689565b5f80546060919067ffffffffffffffff811115610c8a57610c8a610e62565b604051908082528060200260200182016040528015610cb3578160200160208202803683370190505b5090505f5b5f54811015610d11575f8181548110610cd357610cd3611180565b905f5260205f2090600902015f0154828281518110610cf457610cf4611180565b602090810291909101015280610d09816111a8565b915050610cb8565b50919050565b5f80805b5f548110156102ab57835f8281548110610d3757610d37611180565b905f5260205f2090600902016006015403610d5a5781610d56816111a8565b9250505b80610d64816111a8565b915050610d1b565b6040518061012001604052805f81526020016060815260200160608152602001606081526020015f8152602001606081526020015f8152602001606081526020015f151581525090565b508054610dc2906111c0565b5f825580601f10610dd1575050565b601f0160209004905f5260205f2090810190610ded9190610df0565b50565b5b80821115610e04575f8155600101610df1565b5090565b5f60208284031215610e18575f80fd5b5035919050565b602080825282518282018190525f9190848201906040850190845b81811015610e5657835183529284019291840191600101610e3a565b50909695505050505050565b634e487b7160e01b5f52604160045260245ffd5b5f82601f830112610e85575f80fd5b813567ffffffffffffffff80821115610ea057610ea0610e62565b604051601f8301601f19908116603f01168101908282118183101715610ec857610ec8610e62565b81604052838152866020858801011115610ee0575f80fd5b836020870160208301375f602085830101528094505050505092915050565b5f805f805f805f80610100898b031215610f17575f80fd5b88359750602089013567ffffffffffffffff80821115610f35575f80fd5b610f418c838d01610e76565b985060408b0135915080821115610f56575f80fd5b610f628c838d01610e76565b975060608b0135915080821115610f77575f80fd5b610f838c838d01610e76565b965060808b0135955060a08b0135915080821115610f9f575f80fd5b610fab8c838d01610e76565b945060c08b0135935060e08b0135915080821115610fc7575f80fd5b50610fd48b828c01610e76565b9150509295985092959890939650565b5f81518084525f5b8181101561100857602081850181015186830182015201610fec565b505f602082860101526020601f19601f83011685010191505092915050565b60208152815160208201525f602083015161012080604085015261104f610140850183610fe4565b91506040850151601f198086850301606087015261106d8483610fe4565b9350606087015191508086850301608087015261108a8483610fe4565b9350608087015160a087015260a08701519150808685030160c08701526110b18483610fe4565b935060c087015160e087015260e087015191506101008187860301818801526110da8584610fe4565b945080880151925050506102218286018215159052565b5f6101208b835280602084015261110a8184018c610fe4565b9050828103604084015261111e818b610fe4565b90508281036060840152611132818a610fe4565b905087608084015282810360a084015261114c8188610fe4565b90508560c084015282810360e08401526111668186610fe4565b9150508215156101008301529a9950505050505050505050565b634e487b7160e01b5f52603260045260245ffd5b634e487b7160e01b5f52601160045260245ffd5b5f600182016111b9576111b9611194565b5060010190565b600181811c908216806111d457607f821691505b602082108103610d1157634e487b7160e01b5f52602260045260245ffd5b601f82111561123b575f81815260208120601f850160051c810160208610156112185750805b601f850160051c820191505b8181101561123757828155600101611224565b5050505b505050565b815167ffffffffffffffff81111561125a5761125a610e62565b61126e8161126884546111c0565b846111f2565b602080601f8311600181146112a1575f841561128a5750858301515b5f19600386901b1c1916600185901b178555611237565b5f85815260208120601f198616915b828110156112cf578886015182559484019460019091019084016112b0565b50858210156112ec57878501515f19600388901b60f8161c191681555b5050505050600190811b01905550565b8181038181111561130f5761130f611194565b92915050565b8082018082111561130f5761130f611194565b818103611333575050565b61133d82546111c0565b67ffffffffffffffff81111561135557611355610e62565b6113638161126884546111c0565b5f601f821160018114611394575f831561137d5750848201545b5f19600385901b1c1916600184901b1784556113f6565b5f85815260209020601f198416905f86815260209020845b838110156113cc57828601548255600195860195909101906020016113ac565b50858310156113e957818501545f19600388901b60f8161c191681555b50505060018360011b0184555b5050505050565b634e487b7160e01b5f52603160045260245ffdfea2646970667358221220d6728ca93ee65a57f49428cbed38e378027dbfa86d4fa268261f2d897319f04564736f6c63430008150033",
  "immutableReferences": {},
  "source": "// SPDX-License-Identifier: MIT\r\npragma solidity >=0.4.22 <0.9.0;\r\n\r\ncontract votersInfo {\r\n    struct Voter {\r\n        uint NID;\r\n        string name;\r\n        string fatherName;\r\n        string motherName;\r\n        uint age;\r\n        string gender;\r\n        uint centerID;\r\n        string imageURL;\r\n        bool votingStatus;\r\n    }\r\n\r\n    Voter[] public voters;\r\n\r\n    // voter add\r\n    function setVoter(uint _nid,string memory _name,string memory _fatherName,string memory _motherName,uint _age,string memory _gender,uint _centerID,string memory _imageURL) public returns (bool){\r\n        bool status=true;\r\n        voters.push(Voter(_nid,_name,_fatherName,_motherName,_age,_gender,_centerID,_imageURL,false));\r\n        return status;\r\n    }\r\n\r\n    //delete voter\r\n    function deleteVoter(uint _nid) public returns (bool) {\r\n        bool status = false;\r\n        int index = -1;\r\n\r\n        for (uint i = 0; i < voters.length; i++) {\r\n            if (voters[i].NID == _nid) {\r\n                index = int(i);\r\n                break;\r\n            }\r\n        }\r\n\r\n        if (index != -1) {\r\n            for (uint j = uint(index); j < voters.length - 1; j++) {\r\n                voters[j] = voters[j + 1];\r\n            }\r\n            voters.pop();\r\n            status = true;\r\n        }\r\n\r\n        return status;\r\n    }\r\n\r\n    function getLength() public view returns (uint) {\r\n        return voters.length;\r\n    }\r\n\r\n    function verifyVoterInfo(uint _NID) public view returns (Voter memory) {\r\n        Voter memory emptyData;\r\n\r\n        for (uint i = 0; i < voters.length; i++) {\r\n            if (voters[i].NID == _NID) {\r\n                return voters[i];\r\n            }\r\n        }\r\n        return emptyData;\r\n    }\r\n\r\n    //check is the citizen add to voter list\r\n    function getCitizenStatus() public view returns (uint[] memory) {\r\n        uint[] memory addedVoter = new uint[](voters.length);\r\n\r\n        for (uint i = 0; i < voters.length; i++) {\r\n            addedVoter[i] = voters[i].NID;\r\n        }\r\n\r\n        return addedVoter;\r\n    }\r\n\r\n    //constituency and center wise voter list\r\n    //get length\r\n    function constituencyAndCenterWiseLength(uint _centerID) internal view returns (uint) {\r\n        uint count = 0;\r\n\r\n        for (uint i = 0; i < voters.length; i++) {\r\n            if (voters[i].centerID == _centerID) {\r\n                count++;\r\n            }\r\n        }\r\n        return count;\r\n    }\r\n\r\n    //get index\r\n    function constituencyAndCenterWiseVoterIndex(uint _centerID) public view returns (uint[] memory) {\r\n        uint len = constituencyAndCenterWiseLength(_centerID);\r\n\r\n        uint[] memory voterIndex = new uint[](len);\r\n        uint count = 0;\r\n\r\n        for (uint i = 0; i < voters.length; i++) {\r\n            if (voters[i].centerID == _centerID) {\r\n                voterIndex[count] = i;\r\n                count++;\r\n            }\r\n        }\r\n        return voterIndex;\r\n    }\r\n\r\n    //change voting status after vote\r\n    function castVote(uint _NID) public returns (bool) {\r\n        bool status = false;\r\n\r\n        for (uint i = 0; i < voters.length; i++) {\r\n            if (voters[i].NID == _NID) {\r\n                voters[i].votingStatus = true;\r\n\r\n                status = true;\r\n            }\r\n        }\r\n        return status;\r\n    }\r\n}\r\n",
  "sourcePath": "D:\\Lecture Videos\\Previous\\_CSE4250\\Hosting\\smart-voting\\contracts\\votersInfo.sol",
  "compiler": {
    "name": "solc",
    "version": "0.8.21+commit.d9974bed.Emscripten.clang"
  },
  "schemaVersion": "3.4.13",
  "updatedAt": "2023-11-05T14:09:50.231Z",
  "networkType": "ethereum",
  "devdoc": {
    "kind": "dev",
    "methods": {},
    "version": 1
  },
  "userdoc": {
    "kind": "user",
    "methods": {},
    "version": 1
  }
}